:02000002B0004C
:1040000000400B0066670B00000006000C00050274
:084010000401B41400000000DB
:0440180074610B00C4
:10401C0010F8012B11F8013B012A28BF9A42F7D066
:10402C00D01A7047034613F8012B002AFBD1181A3B
:10403C000138704709480A49884208B505D0094A31
:10404C00824202D0121A01F051FF0748074A0021A0
:10405C00121A01F059FF014808BD00BFA4E5032066
:10406C0068660B0074E6032074E60320F0E7032077
:10407C0070B5074E074C01F0A9FDA41BA408002540
:10408C00AC4200D170BD56F8043B98470135F7E7B8
:10409C0020660B0044660B0000F038B808B500F041
:1040AC003FF8BDE8084001F049BD00F081BE00F0CA
:1040BC007FBE00F085BE00F083BE0078B0FA80F0C1
:1040CC0040097047012303707047000098B502F156
:1040DC00080323F0070300AFADEB030D144668464D
:1040EC0001F004FF002368460DF8043001F0FAFEDD
:1040FC00044B1860044B1A68032AC4BF01221A60CF
:10410C00BD4698BDD8E60320A4E5032008B501F010
:10411C008FFCBDE808404FF4165101F07DBC000047
:10412C00F0B51D4885B000F07DF980B9684600F007
:10413C00CFFD0099184800F065FA684601F04AF87E
:10414C001649154805B0BDE8F04000F08ABC144C87
:10415C00114800F03EFB2368032B1BDC114E124D63
:10416C003268182707FB0252506800F051FE0F4BC3
:10417C0032681B680848062101FB023302330C49E4
:10418C0055F8233033607B43EA5800F0C6FA2368B5
:10419C000133236005B0F0BD74E6032088610B0089
:1041AC00A4E50320D4E60320A8E50320D8E60320E9
:1041BC00A4610B0007B50021012000F06DFD002368
:1041CC0000930549054B064840F25B7200F04EF82F
:1041DC0003B05DF804FB00BFBA610B00D9400B00C3
:1041EC0074E6032091F85C3010B50446016013B1FD
:1041FC00886D00F041FC204610BD10B5036893F8A3
:10420C005C20044612B1986D00F03EFC204610BDB7
:10421C00F8B51F469DF8243004460D4616462BB1C2
:10422C00012380F85C30583000F01EFC089B23639F
:10423C000023636306B1A66425B1294604F1380056
:10424C0001F027F8069B2365079BE069A4F84C70E6
:10425C00FF2BB8BFFF23A4F8543008B1FFF729FF98
:10426C00B4F85400FFF723FFE061F8BD2DE9FF41DE
:10427C0004460025174698460E4601F00BFB0D49E7
:10428C00E56104F1380000F0F0FF9DF82830A564DA
:10429C00CDE90283FF220F23CDE90032204684F8BA
:1042AC005C503B462A463146FFF7B2FF204604B02D
:1042BC00BDE8F081DD610B0010B50446204601F02D
:1042CC0045FA0028FAD0204601F02AF8C0B210BDF9
:1042DC002DE9F04705468846FFF7EEFFEB691870AD
:1042EC00EB6993F800A04FF001090AF0F00A0027DF
:1042FC004C462846FFF7E0FF2646EB69985500F040
:10430C007F0313FB09F31F4401340306A4B2BFB2AD
:10431C004FEAC919EDD4631EBAF1300F88F800309A
:10432C001ED12846FFF7C8FFEB6918552846FFF742
:10433C00C3FFF41C0236B6B2EB69A4B29855022640
:10434C00B6B2BE420ED22846FFF7B6FFB5F85430CF
:10435C00A34284BFEB6918550134A4B20136EFE7D0
:10436C000026EDE7B5F85430A3422CBF20460020C0
:10437C00BDE8F0872DE9F34115461E461A4607465F
:10438C000023964602A802F07F0CBEF17F0F03F1CA
:10439C000104034488BF4CF0800CBEF17F0F4FEA40
:1043AC00D212E4B203F804CC1ED8C4F10403C4F155
:1043BC000500E954224601A9284405EB030801F045
:1043CC0095FD721C22444146384600F094FF054688
:1043DC0000F072FB621C78623244A8B2131A584285
:1043EC00584102B0BDE8F0812346CAE70233F0B56C
:1043FC00054698B20023CE5C9CB256B1B5F854C0B9
:10440C00844503F1010704D9441C16543B46A0B261
:10441C00F1E799B2411A0A44210A02F8021C02F887
:10442C00013CF0BD38B5044601F0B2F8002814BFC9
:10443C000125002502D1204601F0E2F9284638BDBD
:10444C002DE9F04788B00446DDF840809DF850A077
:10445C00894617461E46FFF7E5FF0546002840F043
:10446C00CD80214601A8FFF7BDFEA16C002940F0CC
:10447C008880B4F84C20A16B2B46204601F00AF83A
:10448C0000287AD0012323849DF85430E269042B50
:10449C005B4B40F08180186899889B79ADF80C10C3
:1044AC008DF80E300290C2F805009DF80E30BDF864
:1044BC000C10A2F80910D3720C23B8F1000F00F005
:1044CC0081809DF848009DF84420400140EAC200DC
:1044DC0040F00600C0B2BAF1000F01D100F0FD00AF
:1044EC001FB1002E70D140F08000E269D054226DD3
:1044FC00E169581C12120A549A1CE169206D885407
:10450C000333E26949462046FFF770FF0346B8F1D2
:10451C00000F0BD0E26941462046FFF767FFE269C6
:10452C00139903462046FFF761FF034667B1E26922
:10453C0039462046FFF75AFF03462EB1E269314651
:10454C002046FFF753FF0346053BE2699BB210215F
:10455C002046FFF70FFF00F0AFFAC4E909004FF453
:10456C007A76204601F0F2F888BB00F0A5FAA36A2F
:10457C00C01A236D73439842F3D9204601F040F9D9
:10458C0035E002A800F00CFDB4F84C202B4602A933
:10459C00204601F05FF873E7D3F80700D3F80B104F
:1045AC00DB7B0DF1080CACE803008CF8003002AB9F
:1045BC0003CBC2F80500C2F809109CF80030537305
:1045CC000E237AE7022086E740F0C0008DE702A9AF
:1045DC002046FFF77DFE0428CFD1E369DE78002E5C
:1045EC00CBD100F069FA0125A06284F82C6001A8F7
:1045FC00FFF703FE284608B0BDE8F0870025F9E771
:10460C0064610B007FB501230422CDE90432002341
:10461C00CDE90233CDE900331A46FFF711FF07B09D
:10462C005DF804FB2DE9F74FDDF83C809DF8345024
:10463C009DF8389004468B4616461F46FFF7F2FE4F
:10464C008246002851D0214601A8FFF7CBFDB4F8D3
:10465C005420E069002101F057FC0523E26959461A
:10466C002046FFF7C3FE6B1E012B15D8218CE36986
:10467C00013189B22184090A1954421CE369218C45
:10468C0092B20230995480B2B8F1000F04D0238C4E
:10469C005A1C2284A8F8003000210B188F42E269C2
:1046AC009BB20AD9B4F854C09C4506D916F801C07F
:1046BC0002F803C0013189B2EFE79DF830100029F0
:1046CC000CBF30213121B9F1000F01D041F00801AC
:1046DC00022D0ED141F00401053B9BB22046FFF7A1
:1046EC0049FE824601A8FFF788FD504603B0BDE89D
:1046FC00F08F012D08BF41F00201EDE71FB5089CBA
:10470C000394002402949DF81C4001949DF81840D9
:10471C000094FFF787FF04B010BD30B587B0044696
:10472C00104605910492FFF77DFC00250346CDE968
:10473C000155DDE9042100952046FFF7DFFF07B0A6
:10474C0030BD73B504460E46FFF76CFE0546C8B186
:10475C00214601A8FFF746FDE36962221A70E3695E
:10476C0002225A70E369320A9A70E369DE70E169D9
:10477C000422204600F0BFFD051E01A818BF01252C
:10478C00FFF73BFD284602B070BD73B504460E46DC
:10479C00FFF748FE0546C8B1214601A8FFF722FDE8
:1047AC00E36972221A70E36902225A70E369320AD1
:1047BC009A70E369DE70E1690422204600F09BFDEB
:1047CC00051E01A818BF0125FFF717FD284602B0EA
:1047DC0070BD2DE9F04F2DED028B87B000AF044674
:1047EC00FFF720FE8146F8B1214607F11400FFF7D0
:1047FC00F9FC00F061F9236D4FF47A725343A26A0D
:10480C00821A9A42064603D8626A821A934221D2CD
:10481C0094F82C307BB1204600F0F2FF4FF00009E9
:10482C0007F11400FFF7E9FC48461C37BD46BDEC08
:10483C00028BBDE8F08FE269C0211170E269537000
:10484C00E1690222204600F056FDC4E90966012305
:10485C0084F82C30204600F079FF0028E0D007F1D6
:10486C0013012046FFF734FD83460028D8D0E369B6
:10487C00A662197801F0F002302A7FD1D4F830A06A
:10488C00BAF1000FCCD097F813C06A4608EE102A84
:10489C0003EB0C025178957805EB0125ADB205F1CF
:1048AC0008026946D208A1EBC20295460CF103023C
:1048BC00FA6003EB020E0DEB05026846C7F808D050
:1048CC007A60D7E901218A4206D00A461EF8018B8C
:1048DC0002F8018BBA60F4E70022425593F800808D
:1048EC00F96808F00608ABEB0C02033AB8F1020FBA
:1048FC00A2EB0502294425D113F801E01944023A30
:10490C0091F801B00CF10501294419440BEB0E2B65
:10491C00D047E36940221A70E3691FFA8BFB83F8D6
:10492C000180E3694FEA1B229A70E36983F803B0B4
:10493C00E1690422204600F0DEFC666218EE103AB3
:10494C009D466DE7B8F1040F15D113F801E0194439
:10495C00023A91F801B00CF10501294419440BEB12
:10496C000E2BD047E36950221A70E36902221FFA1A
:10497C008BFB5A70D5E71944D047DFE7502A08D192
:10498C009A78D97801EB022189B22046FFF7D9FE3B
:10499C0046E7402A12D1626B002A3FF441AFBBF1CB
:1049AC00040F7FF43DAF11F0060F7FF439AF997807
:1049BC00D87800EB012080B2904731E7602A08D10B
:1049CC009A78D97801EB022189B22046FFF7DDFEF7
:1049DC0026E7702ADFD0902A3FF422AFC02A0AD1F2
:1049EC00D0221A70E36900225A70E1690222204633
:1049FC0000F081FC14E7D02A04BF002384F82C308B
:104A0C000EE7F7B504460F461646FFF70BFD0546B5
:104A1C0010B3214601A8FFF7E5FB238C01339BB2B1
:104A2C00EBB12384238CE2691B0A5371E369228C5A
:104A3C009A71E269072339462046FFF7D7FCE369F0
:104A4C001E54043883B2E26982212046FFF792FC9F
:104A5C00054601A8FFF7D1FB284603B0F0BD0123A2
:104A6C00DFE70022FFF7CDBF08B5024B1B681B6BBD
:104A7C00019308BD4802030008B5024B1B689B6BF1
:104A8C00019308BD4802030008B5024B1B681B6C60
:104A9C00019308BD4802030008B5024B1B685B6C10
:104AAC00019308BD4802030008B5024B1B685B6804
:104ABC00019308BD1802030008B5024B1B685B6923
:104ACC00019308BD1802030008B5024B1B685B6913
:104ADC00019308BD6C02030008B5024B1B685B69AF
:104AEC00019308BD6402030008B5024B1B681B6AE6
:104AFC00019308BD6402030008B5024B1B689B6A56
:104B0C00019308BD6402030008B5024B1B689B6847
:104B1C00019308BD6802030008B5024B1B68DB68F3
:104B2C00019308BD6802030008B5024B1B689B6922
:104B3C00019308BD3802030008B5024B1B68DB6902
:104B4C00019308BD3802030008B5024B1B681B6AB1
:104B5C00019308BD3802030008B5024B1B689B6A21
:104B6C00019308BD3802030008B5024B1B681B6B90
:104B7C00019308BD3802030008B5024B1B689B6B00
:104B8C00019308BD3802030008B5024B1B68DB68B3
:104B9C00019308BD3C02030008B5024B1B681B695E
:104BAC00019308BD3C02030008B5024B1B685B690E
:104BBC00019308BD3C02030008B5024B1B689B69BE
:104BCC00019308BD3C02030008B5024B1B68DB696E
:104BDC00019308BD3C02030008B5024B1B689B6A9D
:104BEC00019308BD3C02030008B5024B1B681B6C0B
:104BFC00019308BD3C02030008B5024B1B681B68FF
:104C0C00019308BD4C02030008B5024B1B685B689E
:104C1C00019308BD4C02030008B5024B1B681B69CD
:104C2C00019308BD4C02030008B5024B1B685B697D
:104C3C00019308BD4C02030008B5024B1B689B692D
:104C4C00019308BD4C02030008B5024B1B68DB69DD
:104C5C00019308BD4C02030008B5024B1B681B6A8C
:104C6C00019308BD4C02030008B5024B1B681B6D79
:104C7C00019308BD6002030008B5024B1B685B681A
:104C8C00019308BD2002030008B5024B1B685B6949
:104C9C00019308BD2002030008B5024B1B68DB6AB8
:104CAC00019308BD2002030008B5034B1B68D3F821
:104CBC008830019308BD00002002030008B5034BA7
:104CCC001B68D3F89430019308BD00002002030048
:104CDC0008B5024B1B68DB69019308BD4402030055
:104CEC0008B5024B1B68DB6B019308BD4402030043
:104CFC0008B5024B1B685B68019308BD40020300BA
:104D0C0008B5024B1B689B68019308BD4002030069
:104D1C0008B5024B1B68DB68019308BD4002030019
:104D2C0008B5024B1B681B69019308BD40020300C8
:104D3C0008B5024B1B685B69019308BD4002030078
:104D4C0008B5024B1B689B69019308BD4002030028
:104D5C0008B5024B1B68DB69019308BD40020300D8
:104D6C0008B5024B1B681B6A019308BD4002030087
:104D7C0008B5024B1B681B6B019308BD4002030076
:104D8C0008B5024B1B685B6B019308BD4002030026
:104D9C0008B5024B1B681B6C019308BD4002030055
:104DAC0008B5024B1B685B6C019308BD4002030005
:104DBC0008B5024B1B681B68019308BD1C0203005D
:104DCC0008B5024B1B685B68019308BD1C0203000D
:104DDC0008B5024B1B689B68019308BD1C020300BD
:104DEC0008B5024B1B68DB6B019308BD1C0203006A
:104DFC0008B5024B1B681B6C019308BD1C02030019
:104E0C0008B5024B1B685B6C019308BD1C020300C8
:104E1C000021FFF739BF0000024800230360FFF7B1
:104E2C003BBE00BFDCE60320002240681146FFF7C2
:104E3C0097BF002240681146FFF7A2BF40680022CE
:104E4C00FFF796BF4068002281F00101FFF780BF99
:104E5C00002340681A461946FFF772BF00234068CA
:104E6C001A461946FFF764BF002240681146FFF747
:104E7C0057BF002240681146FFF742BF406800222E
:104E8C000221FFF745BF002340681A46FFF730BFE9
:104E9C00024B03225A60024A1A607047E0E6032074
:104EAC00F8610B00704710B518210446FFF703F9A1
:104EBC00204610BDF0B5037D062B8DB00E4600F1DB
:104ECC0004074FF0000412D000F1080515F8011D7D
:104EDC000A22304600F059F9AF42044419D0002C94
:104EEC00F4D02E21304600F04DF90444EEE72F2388
:104EFC006A4639460A208DF80040FFF7EDFD6846FA
:104F0C00FFF790F833680246DB68694630469847ED
:104F1C00044620460DB0F0BD10B5054B04461122D9
:104F2C0040F8043B002100F0EFFF204610BD00BF0D
:104F3C0034620B000346074A10B543F8042B01F109
:104F4C00100251F8044B43F8044B9142F9D10A7802
:104F5C001A7010BD34620B00037D042B04D1406821
:104F6C00003818BF01207047062B07D143683BB9A6
:104F7C0083682BB9C3681BB90069F1E7002070473F
:104F8C000120704710B59DF8084044EA032343EA1A
:104F9C00024242EA016104234160037510BD000026
:104FAC0007B5064B0360CB7800938B784A78097869
:104FBC00FFF7E8FF03B05DF804FB00BF34620B00A1
:104FCC00014B024A1A607047E8E6032040620B006E
:104FDC00002340681A46FFF78BBE4068002202216E
:104FEC00FFF796BE002240681146FFF789BE0022EB
:104FFC0040681146FFF794BE002340681A461946D4
:10500C00FFF796BE002340681A461946FFF798BE74
:10501C0040680021FFF7BCBE40680021FFF7C0BE0E
:10502C004068002281F00101FFF792BE4068002227
:10503C00FFF79EBE002240681146FFF7A1BE00227A
:10504C0040681146FFF78CBE2DE9F04395B014462D
:10505C000D460746FFF760FF00211C220DA80091AA
:10506C0000F052FF40230C9320466B460CAA002103
:10507C00FFF752FD044600284BD102460121686817
:10508C00FFF74EFE0221804622466868FFF748FE75
:10509C00009E81462146002E3BD0002939D17368F1
:1050AC00022B03D00A2B11D0F669F4E7B8F1000FEC
:1050BC00FAD0716906A8043107ADFFF771FF0FCD67
:1050CC003C1D0FC42B6823704146EDE7B9F1000F6E
:1050DC00EAD07469102201A800F016FF06238DF89F
:1050EC00143001AD04F108031834186859682A46C5
:1050FC0003C20833A3421546F7D101A906A807AD90
:10510C00FFF718FF0FCD3C1D0FC42B6823704946C9
:10511C00CAE70098FFF7F8FC384615B0BDE8F083F5
:10512C00024B034A1A6000225A607047ECE60320D7
:10513C004C620B00F8B506460D468F180024BD4294
:10514C000CD0336815F8011B9B6830469847031E3A
:10515C0001DB1C44F3E7002C08BF1C462046F8BDBD
:10516C0013B50446084659B10191FEF75BFF23685D
:10517C000199DB680246204602B0BDE81040184792
:10518C0002B010BD03689B68184730B58BB0002384
:10519C00012A8DF8243098BF0A2209AC0D46B1FBC8
:1051AC00F2F101FB125303F0FF03092B94BF3033D0
:1051BC003733DBB2AA4204F8013DEFD92146FFF7A1
:1051CC00CFFF0BB030BD0000014B00229A6070473E
:1051DC00F4E6032010B504460068FFF7F1FD204605
:1051EC0010BD10B50446006808B1FFF7E9FD0023B7
:1051FC00C4E90133236010BD38B504460D46006880
:10520C000131FFF7E5FD10B1C4E90005012038BDFF
:10521C0010B50368044623B143688B4201D30120C7
:10522C0010BD2046FFF7E8FF0028F9D0A368002B3B
:10523C00F5D122681370F2E737B50D46114601928D
:10524C000446FFF7E5FF019A28B92046FFF7C9FF8E
:10525C00204603B030BDA2602946206800F046FE0F
:10526C002268A3680021D154F2E7002313B5C0E9EA
:10527C00003304468360037341B108460191FEF785
:10528C00D1FE019902462046FFF7D6FF204602B018
:10529C0010BD13B5044659B108460191FEF7C2FE84
:1052AC00019902462046FFF7C7FF204602B010BD09
:1052BC00FFF797FFF9E70000054B02221A60054B38
:1052CC00054A9A600020C3E90000FFF7D5BC00BF77
:1052DC0010E7032004E703200000FFFF13B5036869
:1052EC008DF80710DC6B01224FF0FF330DF1070135
:1052FC00A04702B010BD10B40368DC6B4FF0FF3355
:10530C00A4465DF8044B604713B5134602688DF84C
:10531C000710D46B0DF107010122A04702B010BD9C
:10532C0010B54369B3F88620B3F884309A4204462A
:10533C0008D06369B3F88420511CA3F8841013447B
:10534C00187910BD03681B6998470028F1D14FF0FC
:10535C00FF30F6E7704743691868C043C00F7047C9
:10536C0070470000064B994210B500F10C0405D0B3
:10537C00084600F09FFC002808BF0024204610BD02
:10538C00E8610B0010B5AC210446FEF794FE2046F4
:10539C0010BDAC21FEF78FBE2DE9F0414FF0000897
:1053AC0086B01C46C0F8048005460E46174641469A
:1053BC00102202A800F0A8FD631C09D04FF47A73E8
:1053CC00B4FBF3F203FB1244CDE902285C430494D2
:1053DC00686910230093006802AB41F2050240F6A5
:1053EC00FF71FFF7A1FB002807DAFFF7F9FC036850
:1053FC006B60002006B0BDE8F0816869002300688E
:10540C003A463146FFF7B0FB031EEEDB1846F1E7D8
:10541C0038B584690A4B036005467CB16368013B6F
:10542C0063605BB9236820469B689847A368013B7F
:10543C00A3601BB923682046DB689847284638BD13
:10544C00BC620B0010B50446FFF7E2FF20461C219E
:10545C00FEF731FE204610BD30B587B0044601ADD5
:10546C006846FFF79DFD0FCD04340FC42B682370E5
:10547C0007B030BD70B54D69054B04468C3544F80A
:10548C00043B06460FCD0FC42B682370304670BD0D
:10549C0034620B002DE9F0439846036893B00D4637
:1054AC000024DB6A06461746984728466B46224678
:1054BC0021460094FFF730FB0546002863D1009B82
:1054CC00002B4BD05B69002B48D006A8FFF724FDBE
:1054DC00009B5C696378022B04D1211D06A8FFF7A1
:1054EC00BBFF26E00A2B24D11122294601A800F08B
:1054FC000BFDA368002B38D004F108030DF1040C4C
:10550C00183418685968624603C20833A34294469B
:10551C00F7D1062301A90CA88DF81430FFF70AFD6A
:10552C000DF1340CBCE80F0007AC0FC4DCF80030F4
:10553C00237006A8FFF710FD80B1336807ADD3F8D0
:10554C002090124B0C930FCD0DAC0FC42B68237015
:10555C003A4643460CA93046C84705460098FFF723
:10556C00D3FA284613B0BDE8F083E368002BC3D10F
:10557C004FF6FF70D4F81090FFF7B6FA8145BBD107
:10558C0004F11401AAE72546E8E700BF34620B00DA
:10559C0038B543691A68002A054610DAB3F8862034
:1055AC00B3F884309A420AD103681B6998470446C1
:1055BC0028B92B682846DB6A9847204638BD01205D
:1055CC00FCE710B54369B3F88620B3F884309A42EF
:1055DC00044605D06369B3F884201344187910BDD0
:1055EC0003681B6998470028F4D14FF0FF30F6E7A9
:1055FC00F8B543691746B3F88620B3F884309A425D
:10560C0005460E4616D06969B1F88430B1F886406B
:10561C00E41ABC4228BF3C460433224619443046A7
:10562C0000F064FC6A69B2F884302344A2F8843038
:10563C002046F8BD03681B6998470028E3D14FF05A
:10564C00FF34F5E742690023A2F884304269A2F8DE
:10565C00863070472DE9F0411F4603680C46DB6A23
:10566C008AB0054616469847237DD5F81480042B3E
:10567C000CBF02200A2006220121FFF77DFAC8F890
:10568C0000006B691B68002B08DA2B682846DB6A64
:10569C000024984720460AB0BDE8F0812846FFF761
:1056AC00D1FFB7B1002303A9F8B20393ADF81030C2
:1056BC00FFF70AFA0028E8D168690623009300680E
:1056CC0003AB41F20B0240F6FF71FFF72DFA0028F5
:1056DC00DBD11C22002103A800F016FC237D042B37
:1056EC001DD14FF407733046ADF80C30FFF704FAB8
:1056FC00ADF80E006068FFF7F7F904906B691C2297
:10570C00186803A9FFF720FA0028BED104340FCC87
:10571C006D698C350FC523682B700124BAE740F6F0
:10572C001C233046ADF80C30FFF7E6F905AEADF8AA
:10573C000E00231D04F1140718685968324603C281
:10574C000833BB421646F7D1D8E7000030B54269A2
:10575C00B2F886308BB004462BB1B2F884209A4252
:10576C0001D1FFF76FFF61690868002818DBB1F8F9
:10577C0086507F2D14D804310823C5F180022944AA
:10578C00FFF7EAF9002813DD6369B3F886200AB93C
:10579C00A3F884206369B3F886201044A3F886002C
:1057AC006369B3F88600B3F88430C01A0BB030BD0F
:1057BC00FFF716FB03680B2BF2D0FFF711FB036806
:1057CC000B2BEDD020230025CDE90235FFF708FB8C
:1057DC0003680193084B0949009302AA2B46322017
:1057EC00FFF742FA63691868FFF7A6F963694FF08F
:1057FC00FF321A60D4E700BF87620B0080620B0097
:10580C0010B5436904461868002801DBFFF794F9CA
:10581C0063694FF0FF321A606069112200218C30ED
:10582C0000F072FB2046BDE81040FFF70BBF10B52F
:10583C00002304460160C0F884308830FFF76CFB0D
:10584C00204610BD73B500234FF47A72C0E90132C3
:10585C000E4A0361026043610446AC200191FEF7DD
:10586C0024FC051E05F10C0608D00123C5E9013303
:10587C00074B01992B603046FFF7D9FF2046C4E94E
:10588C000565FFF7DFFE02B070BD00BFBC620B0008
:10589C00A0620B0010B54FF0FF310446FFF7D2FFAA
:1058AC00204610BD10B504460068002801DBFFF748
:1058BC0043F9204610BD0C30FFF7F4BF024B1A68B9
:1058CC00024B1A60704700BF08E6032014E7032060
:1058DC0070474174704708B5007CFFF77DF920EAEA
:1058EC00E07008BD08B5007CFFF756F920EAE070BF
:1058FC0008BD08B5007CFFF75FF940EAE07008BD11
:10590C0008B5007CFFF750F940EAE07008BD007C58
:10591C00FFF75AB937B5457C04462DB1207C03B04E
:10592C00BDE83040FFF730B9007C0191FFF754F926
:10593C0000280199F2DC284603B030BD10B51421C3
:10594C000446FEF7B8FB204610BD000010B54FF41E
:10595C007A730446084611460022C4E90123044B1D
:10596C002360012320746374FFF73EF9204610BDB9
:10597C0024630B00417470477047704708B50021D1
:10598C00007CFFF759F940EAE07008BD08B5012129
:10599C00007CFFF751F940EAE07008BD08B5007CC7
:1059AC00FFF742F920EAE07008BD08B5007CFFF76C
:1059BC0033F920EAE07008BD13B50446007C019170
:1059CC00FFF732F90028019901DC607C20B1207CC2
:1059DC00FFF73AF920EAE07002B010BD007CFFF747
:1059EC003BB910B514210446FEF765FB204610BDEB
:1059FC0010B54FF47A73044608460021C4E901132C
:105A0C00044B23600123207463741146FFF7F4F8F0
:105A1C00204610BD54630B00007C0022FFF7F4B845
:105A2C0010B514220446002100F06EFA204610BD79
:105A3C0010B50F4C88B003A8FFF7F2FF2178BFF325
:105A4C005B8F11F001010FD120460191FEF735FB60
:105A5C00019948B103AA0748FFF7CAFF2046FEF791
:105A6C0031FB054800F038FA024808B010BD00BF01
:105A7C0018E703201CE7032085590B00002240681F
:105A8C001146FFF74DB9002240681146FFF768B97F
:105A9C00002240681146FFF773B940680022FFF7F7
:105AAC0067B94068002281F00101FFF751B900236A
:105ABC0040681A461946FFF743B9002340681A4656
:105ACC001946FFF735B9002240681146FFF718B99F
:105ADC00406800220221FFF71BB9002340681A46D8
:105AEC00FFF706B9024B04225A60024A1A6070474B
:105AFC0030E7032084630B00014B1860704700BF34
:105B0C000CE6032008B50B4B43B1FFF791FF03687C
:105B1C001B699847002801DDAFF30080064B43B1A9
:105B2C0000F0A2F803681B699847002801DDAFF369
:105B3C00008008BD000000000000000008B5FFF761
:105B4C00E1FFFEF7B9FF014B186008BD40E70320E9
:105B5C000548064A064908B5121A00F0C7F9054B64
:105B6C00054A1A6008BD00BF00F4032004F40320AA
:105B7C0038670B0000F403201E1C279A07B500237E
:105B8C0000931A466FF07701FFF798F803B05DF8B1
:105B9C0004FB000007B543880A2B08D0502B0BD10F
:105BAC00094B1B684BB103B05DF804EB1847FFF7CA
:105BBC00E5FF03B05DF804FB002300931A466FF079
:105BCC007701FFF77BF8F4E73CE7032010B51248A8
:105BDC000021FFF715F9114B1A68114B9A42114B22
:105BEC000CBF012200221A7001D0FFF7B1FFFEF7A3
:105BFC005BFF044600F090F90B4B13B12046AFF35A
:105C0C00008000210848FFF76BF8BDE810400748FA
:105C1C000021FFF749B800BF055B0B0000F403201F
:105C2C001E1C279A38E7032000000000A15B0B0024
:105C3C007047000038B5044614252A46002100F0B0
:105C4C0063F925804025074925812846258200F0E7
:105C5C002FF804496060284600F02AF8E0602046DE
:105C6C0038BD00BFB8630B0030B50E4D2978BFF3BB
:105C7C005B8F11F0010487B011D12846FEF71DFA95
:105C8C0068B101A8FFF7D6FF01AA21460648FFF725
:105C9C005DFE2846FEF716FA044800F01DF902488E
:105CAC0007B030BD44E7032048E703203D5C0B0000
:105CBC00FEF7FDB9014900F0F9B800BFD4630B0041
:105CCC007FB500241023CDE90234036815469E6984
:105CDC0012686B46CDE90044B0479DF8043003F0E0
:105CEC000603062B03BF009B2B600120204604B04B
:105CFC0070BD0098904214BF012006207047000030
:105D0C0010B5034B0360044600F0CDF8204610BDDF
:105D1C0014640B0010B50446FFF7F2FF204608216F
:105D2C00FEF7C9F9204610BD2DE9F0411F46DDE90B
:105D3C000834DDF8188098450646154607D10799B2
:105D4C0000F0B4F818B165710020BDE8F081394657
:105D5C00304600F0ABF80028F6D00123C4F80080E0
:105D6C002571A371F0E738B515461C4600F09EF876
:105D7C0020B10823E36006232560237138BD73B579
:105D8C0005460C4601921E4600F090F850B9032EC1
:105D9C0008D82368019A5B692946204602B0BDE801
:105DAC007040184702B070BD10B5034B0360044639
:105DBC00FFF7A6FF204610BD74640B0010B5044617
:105DCC00FFF7F2FF20460C21FEF775F9204610BDB7
:105DDC00F7B5089F974205460E4614460AD0A868A8
:105DEC0002680897156A31462246AC4603B0BDE8F6
:105DFC00F04060471946019300F058F8019B0028C9
:105E0C00EDD0062003B0F0BD2DE9F14F0D4619463B
:105E1C00DDE90A4BDDE90CA681461746984600F0F1
:105E2C0045F890B1002D3460377109DB61198A4552
:105E3C000CBF06210121B171002001B0BDE8F08F2B
:105E4C000235F9D10123B371F6E7544506D1594611
:105E5C00484600F02BF808B17771EDE7D9F8080047
:105E6C000368CDE90CA6CDE90A4BDC693A464346FA
:105E7C002946A44601B0BDE8F04F60472DE9F0413A
:105E8C0007460C4615461E46FFF76DFF48B9B86825
:105E9C0003689F692A4633462146BC46BDE8F0415B
:105EAC006047BDE8F081704700207047814208B51B
:105EBC000ED0406803782A2B0CD049680B782A2B1B
:105ECC0008BF0131FEF7A4F8B0FA80F0400908BD14
:105EDC000120FCE70020FAE7002301461A46184689
:105EEC0000F0D4B80A22002100F0C6B80A4491424E
:105EFC0000F1FF3300D1704710B511F8014B03F8D6
:105F0C00014F9142F9D110BD02440346934200D196
:105F1C00704703F8011BF9E738B5104B1D68AB6BE4
:105F2C000446B3B91820FEF743FF0246A86320B914
:105F3C000B4B0C484221FEF75BFF0B490B4BC0E9A6
:105F4C0000130B4B83600B23838100210120C2E9DA
:105F5C000401AB6B00221C615A6138BD0CE60320B6
:105F6C00AD640B00C4640B000E33CDAB34126DE684
:105F7C00ECDE0500012B2DE9F04701D0242B06D9CE
:105F8C00FEF72EFF162303600020BDE8F087DFF834
:105F9C00E4C00D462E4615F8014B14F80C7017F0A2
:105FAC000807F7D12D2C32D12C780127B51C002BEA
:105FBC005BD0102B09D1302C07D12C7804F0DF04E6
:105FCC00582C4DD16C781023023507F1004808F19C
:105FDC00FF384FF0000CB8FBF3F9664603FB198A47
:105FEC00A4F1300EBEF1090F16D87446A34224DD7D
:105FFC00BCF1000F1EDBB1451CD301D1A24519DB4E
:10600C0006FB03464FF0010C15F8014BE8E72B2C6F
:10601C0004BF2C78B51CCAE7A4F1410EBEF1190FD0
:10602C0001D8373CE2E7A4F1610EBEF1190F04D898
:10603C00573CDBE74FF0FF3CE6E7BCF1000F05DA1D
:10604C0022230360464642B930469EE707B17642AA
:10605C00002AF9D0BCF1000F00D0691E1160F3E7E3
:10606C003024002BB1D10823AFE7302CA5D00A2364
:10607C00ABE700BF1E650B0013460A4601460248FB
:10608C000068FFF777BF00BF0CE603202DE9F8434B
:10609C00DFF8B8800646D8F800001F460D4691463A
:1060AC0000F056F8254B1C6834B9254C1C60254B68
:1060BC0013B11B68C4F8883063681F2B07DDD8F850
:1060CC00000000F047F84FF0FF30BDE8F8834EB306
:1060DC00D4F8880088B91C4B23B9D8F8000000F01C
:1060EC0038F8F0E74FF48470FEF762FE0028F4D025
:1060FC000023C0E94033C4F88800636840F823905B
:10610C0001229A4000EB8301D0F800311343C0F810
:10611C000031022EC1F8807002BFD0F80431134355
:10612C00C0F804316368D8F800005A1C023362606E
:10613C0044F8235000F00EF80020C6E7E8E70320EF
:10614C005CE7032000000000BD4D0B0070E603204F
:10615C00704770477047000000044D5154540400C0
:10616C00064D51497364700341400B007D400B0098
:10617C00A5400B00A9400B0000000000486970709E
:10618C006F7341726554617374792F436172446902
:10619C0072656374696F6E00486970706F734172D9
:1061AC006554617374792F4F7574707574006C61DC
:1061BC00622E74686577636C2E636F6D005B302C98
:1061CC0020325D005B312C20325D005B322C2030A4
:1061DC005D005B322C20315D0000000000000000EF
:1061EC00000000000000000000000000934E0B00B7
:1061FC00894E0B007F4E0B00754E0B00694E0B0049
:10620C005D4E0B001D500B0025500B00514E0B002A
:10621C00494E0B003F4E0B00354E0B0055500B00FA
:10622C000000000000000000C14E0B00B14E0B003E
:10623C00B34E0B0061707000000000000000000005
:10624C00DD4F0B00E74F0B00F14F0B00FB4F0B002A
:10625C0005500B0011500B001D500B0025500B006E
:10626C002D500B0039500B0041500B004B500B00C4
:10627C0055500B00776972696E6700726563762002
:10628C006572726F72203D202564000000000000D2
:10629C00000000006D530B0091530B00C3580B0012
:1062AC009F530B0071530B00000000000000000016
:1062BC001D540B0051540B00E9520B0003530B00FF
:1062CC0059570B002D530B00CF550B0061530B008E
:1062DC0061560B00A1540B00FD550B000D580B0023
:1062EC009D550B0063530B0015530B00A5530B006E
:1062FC0081540B0025592D256D2D25645425483AC4
:10630C00254D3A2553257A0061736374696D6500D8
:10631C000000000000000000DD580B0049590B0084
:10632C0021590B0041510B00F1580B000D590B007A
:10633C00FF580B001B590B00DF580B00E3580B00E8
:10634C00000000000000000087590B00EF590B0003
:10635C00C5590B0041510B00B7590B0089590B0063
:10636C0099590B00E9590B00A9590B0081590B00E5
:10637C000000000000000000E75A0B00DD5A0B0083
:10638C00D35A0B00895A0B00C75A0B00BB5A0B008F
:10639C001D500B0025500B00AF5A0B00A75A0B00D9
:1063AC009D5A0B00935A0B0055500B00005374313F
:1063BC00395F53705F6D616B655F736861726564A3
:1063CC005F7461670000000014640B00B9630B007C
:1063DC0074640B00E8630B0098640B004E31305F63
:1063EC005F637878616269763131375F5F636C61C6
:1063FC0073735F747970655F696E666F450000003A
:10640C0000000000DC630B000D5D0B00215D0B0038
:10641C00B55E0B00B55E0B008B5D0B00CD5C0B000D
:10642C00735D0B00355D0B00FF5C0B0074640B009F
:10643C0044640B00DC630B004E31305F5F63787893
:10644C00616269763132305F5F73695F636C61736F
:10645C00735F747970655F696E666F45000000004C
:10646C000000000038640B00B55D0B00C95D0B002B
:10647C00B55E0B00B55E0B008B5D0B00CD5C0B00AD
:10648C00895E0B00155E0B00DD5D0B0014640B00C8
:10649C00A0640B00537439747970655F696E666F14
:1064AC00005245454E54206D616C6C6F63207375C2
:1064BC0063636565646564002F746D702F6A656E27
:1064CC006B696E732D4743432D31302D70697065A8
:1064DC006C696E652D34385F323032303131323484
:1064EC005F313630363138303633392F7372632F93
:1064FC006E65776C69622F6E65776C69622F6C695B
:10650C0062632F7374646C69622F72616E642E63A4
:10651C000000202020202020202020282828282887
:10652C00202020202020202020202020202020205F
:10653C0020208810101010101010101010101010B7
:10654C0010100404040404040404040410101010B7
:10655C001010104141414141410101010101010172
:10656C0001010101010101010101010101101010E2
:10657C001010104242424242420202020202020245
:10658C0002020202020202020202020202101010B5
:10659C0010200000000000000000000000000000BF
:1065AC0000000000000000000000000000000000DF
:1065BC0000000000000000000000000000000000CF
:1065CC0000000000000000000000000000000000BF
:1065DC0000000000000000000000000000000000AF
:1065EC00000000000000000000000000000000009F
:1065FC00000000000000000000000000000000008F
:10660C00000000000000000000000000000000007E
:10661C0000000000C1410B00254E0B009D4E0B00ED
:10662C00CD4F0B002D510B00D5510B00C5520B005B
:08663C00C9580B00F15A0B00D4
:10664400040000001400000003000000474E550041
:1066540001C85AC66C07D705549E53C15DA7D5E936
:0466640054D089A1E4
:1066680005000000C9610B000000000000000000E8
:10667800010000000000000000000000D0610B00D5
:106688008813000002000000020000000000000063
:1066980000000000D7610B000000000003000000AC
:1066A800020000000000000000000000DE610B0096
:1066B8008813000000000000000000000000000037
:1066C8000000000014630B0010E603200000000027
:1066D80000000000000000000000000000000000B2
:1066E80000000000000000000000000000000000A2
:1066F8000000000000000000000000000000000092
:106708000000000000000000000000000000000081
:106718000000000000000000000000000000000071
:10672800000000000000000000000000ECE703206B
:04673800000000005D
:1067420000000102030405060708090A0B0C0D0EDE
:106752000F101112131415161718191A1B1C1D1ECF
:046762001F202800CC
:04676600785634121B
:04000003B000401CED
:00000001FF
